:100000000C9446000C9465000C9465000C946500FB
:100010000C9465000C9465000C9465000C946500CC
:100020000C9465000C9465000C9465000C946500BC
:100030000C9465000C94A0000C9465000C94650071
:100040000C9465000C9465000C9465000C9465009C
:100050000C9465000C9465000C9465000C9465008C
:100060000C9465000C9465000C9465000C9465007C
:100070000C9465000C9465000C9465000C9465006C
:100080000C9465000C9465000C94650011241FBE4F
:10009000CFEFD0E4DEBFCDBF11E0A0E0B1E0E6E5F8
:1000A000F3E000E00BBF02C007900D92A231B10750
:1000B000D9F721E0A2E1B1E001C01D92A032B20760
:1000C000E1F70E947F010C94A9010C940000CF93EA
:1000D000C82F8A3019F48DE00E9467008091C0001B
:1000E00085FFFCCFC093C60080E090E0CF910895DB
:1000F0008BE0809381008DE790E09093890080935E
:10010000880082E080936F00109285001092840036
:1001100080910E0190910F01A0911001B0911101F9
:100120008093120190931301A0931401B0931501D1
:100130008FB780688FBF089581E08093160108957E
:100140001F920F920FB60F9211240BB60F922F939E
:100150003F934F935F936F937F938F939F93AF934F
:10016000BF93EF93FF938091120190911301A0919F
:100170001401B09115010197A109B10980931201F1
:1001800090931301A0931401B0931501892B8A2B2E
:100190008B2B91F40E949C0080910E0190910F0195
:1001A000A0911001B091110180931201909313015D
:1001B000A0931401B0931501FF91EF91BF91AF91FE
:1001C0009F918F917F916F915F914F913F912F916F
:1001D0000F900BBE0F900FBE0F901F90189560935D
:1001E0000E0170930F0180931001909311016093A1
:1001F00012017093130180931401909315010895D7
:1002000080911A0190911B01009719F0019759F004
:100210001AC081E08093180181E090E090931B0167
:1002200080931A01089580911801843011F0880F8D
:1002300001C081E08093180181E090E090931B0160
:1002400080931A01089510921B0110921A010895CB
:1002500080911E0190911F01009719F0019751F0B4
:1002600008951092170181E090E090931F01809310
:100270001E0108958091170180958093170181E0F8
:1002800090E090931F0180931E01089520911C011E
:1002900030911D012115310521F02130310559F032
:1002A00011C021E02093190121E030E030931D01BD
:1002B00020931C010BC021E030E030931D012093FE
:1002C0001C0104C010921D0110921C0120911C0100
:1002D00030911D012130310589F420911701822FC1
:1002E000817090E0880F991F880F991F880F991FC0
:1002F00090911801892B8F708093190108958FEFC9
:1003000084B915B868EE73E080E090E00E94EF00D9
:100310000E94780010921B0110921A0110921F0186
:1003200010921E0110921D0110921C0181E0809319
:1003300019010E9400010E9428010E94460180913B
:10034000190185B9809116018823E1F310921601F5
:06035000F0CFF894FFCF8E
:10035600000000020000000067000000000001002D
:02036600000095
:00000001FF
